{
  "contractName": "TruyXuatNguonGoc",
  "abi": [
    {
      "inputs": [
        {
          "internalType": "enum TruyXuatNguonGoc.NetworkRegion",
          "name": "_region",
          "type": "uint8"
        }
      ],
      "stateMutability": "nonpayable",
      "type": "constructor"
    },
    {
      "anonymous": false,
      "inputs": [
        {
          "indexed": true,
          "internalType": "address",
          "name": "wallet",
          "type": "address"
        },
        {
          "indexed": false,
          "internalType": "string",
          "name": "name",
          "type": "string"
        }
      ],
      "name": "ManufacturerRegistered",
      "type": "event"
    },
    {
      "anonymous": false,
      "inputs": [
        {
          "indexed": true,
          "internalType": "address",
          "name": "previousOwner",
          "type": "address"
        },
        {
          "indexed": true,
          "internalType": "address",
          "name": "newOwner",
          "type": "address"
        }
      ],
      "name": "OwnershipTransferred",
      "type": "event"
    },
    {
      "anonymous": false,
      "inputs": [
        {
          "indexed": false,
          "internalType": "uint256",
          "name": "id",
          "type": "uint256"
        },
        {
          "indexed": false,
          "internalType": "string",
          "name": "name",
          "type": "string"
        },
        {
          "indexed": false,
          "internalType": "string",
          "name": "manufacturer",
          "type": "string"
        },
        {
          "indexed": false,
          "internalType": "string",
          "name": "productCode",
          "type": "string"
        },
        {
          "indexed": false,
          "internalType": "enum TruyXuatNguonGoc.NetworkRegion",
          "name": "region",
          "type": "uint8"
        }
      ],
      "name": "ProductMinted",
      "type": "event"
    },
    {
      "anonymous": false,
      "inputs": [
        {
          "indexed": false,
          "internalType": "uint256",
          "name": "id",
          "type": "uint256"
        },
        {
          "indexed": false,
          "internalType": "string",
          "name": "description",
          "type": "string"
        }
      ],
      "name": "StepRecorded",
      "type": "event"
    },
    {
      "inputs": [],
      "name": "currentHubRegion",
      "outputs": [
        {
          "internalType": "enum TruyXuatNguonGoc.NetworkRegion",
          "name": "",
          "type": "uint8"
        }
      ],
      "stateMutability": "view",
      "type": "function"
    },
    {
      "inputs": [
        {
          "internalType": "address",
          "name": "",
          "type": "address"
        }
      ],
      "name": "manufacturers",
      "outputs": [
        {
          "internalType": "string",
          "name": "name",
          "type": "string"
        },
        {
          "internalType": "string",
          "name": "taxCode",
          "type": "string"
        },
        {
          "internalType": "bool",
          "name": "isRegistered",
          "type": "bool"
        },
        {
          "internalType": "address",
          "name": "wallet",
          "type": "address"
        }
      ],
      "stateMutability": "view",
      "type": "function"
    },
    {
      "inputs": [],
      "name": "owner",
      "outputs": [
        {
          "internalType": "address",
          "name": "",
          "type": "address"
        }
      ],
      "stateMutability": "view",
      "type": "function"
    },
    {
      "inputs": [],
      "name": "productCount",
      "outputs": [
        {
          "internalType": "uint256",
          "name": "",
          "type": "uint256"
        }
      ],
      "stateMutability": "view",
      "type": "function"
    },
    {
      "inputs": [
        {
          "internalType": "uint256",
          "name": "",
          "type": "uint256"
        }
      ],
      "name": "products",
      "outputs": [
        {
          "internalType": "uint256",
          "name": "id",
          "type": "uint256"
        },
        {
          "internalType": "string",
          "name": "productCode",
          "type": "string"
        },
        {
          "internalType": "string",
          "name": "name",
          "type": "string"
        },
        {
          "internalType": "string",
          "name": "manufacturer",
          "type": "string"
        },
        {
          "internalType": "string",
          "name": "certification",
          "type": "string"
        },
        {
          "internalType": "string",
          "name": "rawMaterialArea",
          "type": "string"
        },
        {
          "internalType": "uint256",
          "name": "productionDate",
          "type": "uint256"
        },
        {
          "internalType": "uint256",
          "name": "activationDate",
          "type": "uint256"
        },
        {
          "internalType": "address",
          "name": "currentOwner",
          "type": "address"
        },
        {
          "internalType": "enum TruyXuatNguonGoc.ProductType",
          "name": "pType",
          "type": "uint8"
        },
        {
          "internalType": "enum TruyXuatNguonGoc.NetworkRegion",
          "name": "region",
          "type": "uint8"
        }
      ],
      "stateMutability": "view",
      "type": "function"
    },
    {
      "inputs": [],
      "name": "renounceOwnership",
      "outputs": [],
      "stateMutability": "nonpayable",
      "type": "function"
    },
    {
      "inputs": [
        {
          "internalType": "address",
          "name": "newOwner",
          "type": "address"
        }
      ],
      "name": "transferOwnership",
      "outputs": [],
      "stateMutability": "nonpayable",
      "type": "function"
    },
    {
      "inputs": [
        {
          "internalType": "string",
          "name": "_name",
          "type": "string"
        },
        {
          "internalType": "string",
          "name": "_taxCode",
          "type": "string"
        }
      ],
      "name": "registerManufacturer",
      "outputs": [],
      "stateMutability": "nonpayable",
      "type": "function"
    },
    {
      "inputs": [
        {
          "internalType": "string",
          "name": "_code",
          "type": "string"
        },
        {
          "internalType": "string",
          "name": "_name",
          "type": "string"
        },
        {
          "internalType": "string",
          "name": "_cert",
          "type": "string"
        },
        {
          "internalType": "string",
          "name": "_area",
          "type": "string"
        },
        {
          "internalType": "string",
          "name": "_mName",
          "type": "string"
        },
        {
          "internalType": "uint256",
          "name": "_prodDate",
          "type": "uint256"
        },
        {
          "internalType": "enum TruyXuatNguonGoc.ProductType",
          "name": "_pType",
          "type": "uint8"
        }
      ],
      "name": "mintFromOffchain",
      "outputs": [],
      "stateMutability": "nonpayable",
      "type": "function"
    },
    {
      "inputs": [
        {
          "internalType": "uint256",
          "name": "_id",
          "type": "uint256"
        },
        {
          "internalType": "string",
          "name": "_desc",
          "type": "string"
        },
        {
          "internalType": "string",
          "name": "_detail",
          "type": "string"
        },
        {
          "internalType": "string",
          "name": "_img",
          "type": "string"
        }
      ],
      "name": "addProductionLog",
      "outputs": [],
      "stateMutability": "nonpayable",
      "type": "function"
    },
    {
      "inputs": [
        {
          "internalType": "uint256",
          "name": "_id",
          "type": "uint256"
        }
      ],
      "name": "getProductDetails",
      "outputs": [
        {
          "components": [
            {
              "internalType": "uint256",
              "name": "id",
              "type": "uint256"
            },
            {
              "internalType": "string",
              "name": "productCode",
              "type": "string"
            },
            {
              "internalType": "string",
              "name": "name",
              "type": "string"
            },
            {
              "internalType": "string",
              "name": "manufacturer",
              "type": "string"
            },
            {
              "internalType": "string",
              "name": "certification",
              "type": "string"
            },
            {
              "internalType": "string",
              "name": "rawMaterialArea",
              "type": "string"
            },
            {
              "internalType": "uint256",
              "name": "productionDate",
              "type": "uint256"
            },
            {
              "internalType": "uint256",
              "name": "activationDate",
              "type": "uint256"
            },
            {
              "internalType": "address",
              "name": "currentOwner",
              "type": "address"
            },
            {
              "internalType": "enum TruyXuatNguonGoc.ProductType",
              "name": "pType",
              "type": "uint8"
            },
            {
              "internalType": "enum TruyXuatNguonGoc.NetworkRegion",
              "name": "region",
              "type": "uint8"
            },
            {
              "components": [
                {
                  "internalType": "string",
                  "name": "description",
                  "type": "string"
                },
                {
                  "internalType": "string",
                  "name": "detail",
                  "type": "string"
                },
                {
                  "internalType": "string",
                  "name": "imageHash",
                  "type": "string"
                },
                {
                  "internalType": "uint256",
                  "name": "timestamp",
                  "type": "uint256"
                },
                {
                  "internalType": "address",
                  "name": "actor",
                  "type": "address"
                }
              ],
              "internalType": "struct TruyXuatNguonGoc.Step[]",
              "name": "history",
              "type": "tuple[]"
            }
          ],
          "internalType": "struct TruyXuatNguonGoc.Product",
          "name": "",
          "type": "tuple"
        }
      ],
      "stateMutability": "view",
      "type": "function"
    },
    {
      "inputs": [
        {
          "internalType": "uint256",
          "name": "_id",
          "type": "uint256"
        }
      ],
      "name": "getProductHistory",
      "outputs": [
        {
          "components": [
            {
              "internalType": "string",
              "name": "description",
              "type": "string"
            },
            {
              "internalType": "string",
              "name": "detail",
              "type": "string"
            },
            {
              "internalType": "string",
              "name": "imageHash",
              "type": "string"
            },
            {
              "internalType": "uint256",
              "name": "timestamp",
              "type": "uint256"
            },
            {
              "internalType": "address",
              "name": "actor",
              "type": "address"
            }
          ],
          "internalType": "struct TruyXuatNguonGoc.Step[]",
          "name": "",
          "type": "tuple[]"
        }
      ],
      "stateMutability": "view",
      "type": "function"
    }
  ],
  "bytecode": "0x60806040523480156200001157600080fd5b5060405162001de138038062001de18339810160408190526200003491620000bc565b6200003f336200006c565b6004805482919060ff191660018381811115620000605762000060620000e6565b021790555050620000fc565b600080546001600160a01b038381166001600160a01b0319831681178455604051919092169283917f8be0079c531659141344cd1fd0a4f28419497f9722a3daafe3b4186f6b6457e09190a35050565b600060208284031215620000cf57600080fd5b815160028110620000df57600080fd5b9392505050565b634e487b7160e01b600052602160045260246000fd5b611cd5806200010c6000396000f3fe608060405234801561001057600080fd5b50600436106100b45760003560e01c8063715018a611610071578063715018a6146101675780637acc0b201461016f5780638da5cb5b146101995780639d128877146101b4578063e0f6ef87146101c7578063f2fde38b146101de57600080fd5b80630167192c146100b95780631f5b0429146100ce57806330b15caa146100f157806357a096a1146101045780636813b53b146101245780636b5eb09c14610144575b600080fd5b6100cc6100c7366004611444565b6101f1565b005b6004546100db9060ff1681565b6040516100e89190611500565b60405180910390f35b6100cc6100ff366004611514565b6102ed565b610117610112366004611578565b61041d565b6040516100e891906115d7565b610137610132366004611578565b61066b565b6040516100e8919061175b565b61015761015236600461187d565b610c43565b6040516100e894939291906118ad565b6100cc610d89565b61018261017d366004611578565b610d9d565b6040516100e89b9a999897969594939291906118f4565b6000546040516001600160a01b0390911681526020016100e8565b6100cc6101c23660046119c0565b6110ac565b6101d060035481565b6040519081526020016100e8565b6100cc6101ec36600461187d565b611203565b6101f961127c565b6000848152600160208181526040808420815160a081018352888152808401889052918201869052426060830152336080830152600901805493840181558452922082516005909202019081906102509082611b35565b50602082015160018201906102659082611b35565b506040820151600282019061027a9082611b35565b5060608201516003820155608090910151600490910180546001600160a01b0319166001600160a01b039092169190911790556040517f38e66cca58d0d3fd5e7a59bfee6eb6445f01230584708959f337ce202ffbe1bf906102df9086908690611bf5565b60405180910390a150505050565b336000908152600260208190526040909120015460ff16156103445760405162461bcd60e51b815260206004820152600b60248201526a44612064616e67206b792160a81b60448201526064015b60405180910390fd5b60408051608081018252838152602080820184905260018284015233606083018190526000908152600290915291909120815181906103839082611b35565b50602082015160018201906103989082611b35565b50604082810151600290920180546060909401516001600160a01b031661010002610100600160a81b0319931515939093166001600160a81b031990941693909317919091179091555133907f3980e1c29ecf2bdfce4e2793ed6efcc338cb00238d58c95de9000480acc0caef90610411908590611c16565b60405180910390a25050565b606060016000838152602001908152602001600020600901805480602002602001604051908101604052809291908181526020016000905b8282101561066057838290600052602060002090600502016040518060a001604052908160008201805461048890611aac565b80601f01602080910402602001604051908101604052809291908181526020018280546104b490611aac565b80156105015780601f106104d657610100808354040283529160200191610501565b820191906000526020600020905b8154815290600101906020018083116104e457829003601f168201915b5050505050815260200160018201805461051a90611aac565b80601f016020809104026020016040519081016040528092919081815260200182805461054690611aac565b80156105935780601f1061056857610100808354040283529160200191610593565b820191906000526020600020905b81548152906001019060200180831161057657829003601f168201915b505050505081526020016002820180546105ac90611aac565b80601f01602080910402602001604051908101604052809291908181526020018280546105d890611aac565b80156106255780601f106105fa57610100808354040283529160200191610625565b820191906000526020600020905b81548152906001019060200180831161060857829003601f168201915b505050918352505060038201546020808301919091526004909201546001600160a01b03166040909101529082526001929092019101610455565b505050509050919050565b610673611326565b60008281526001602081815260409283902083516101808101909452805484529182018054918401916106a590611aac565b80601f01602080910402602001604051908101604052809291908181526020018280546106d190611aac565b801561071e5780601f106106f35761010080835404028352916020019161071e565b820191906000526020600020905b81548152906001019060200180831161070157829003601f168201915b5050505050815260200160028201805461073790611aac565b80601f016020809104026020016040519081016040528092919081815260200182805461076390611aac565b80156107b05780601f10610785576101008083540402835291602001916107b0565b820191906000526020600020905b81548152906001019060200180831161079357829003601f168201915b505050505081526020016003820180546107c990611aac565b80601f01602080910402602001604051908101604052809291908181526020018280546107f590611aac565b80156108425780601f1061081757610100808354040283529160200191610842565b820191906000526020600020905b81548152906001019060200180831161082557829003601f168201915b5050505050815260200160048201805461085b90611aac565b80601f016020809104026020016040519081016040528092919081815260200182805461088790611aac565b80156108d45780601f106108a9576101008083540402835291602001916108d4565b820191906000526020600020905b8154815290600101906020018083116108b757829003601f168201915b505050505081526020016005820180546108ed90611aac565b80601f016020809104026020016040519081016040528092919081815260200182805461091990611aac565b80156109665780601f1061093b57610100808354040283529160200191610966565b820191906000526020600020905b81548152906001019060200180831161094957829003601f168201915b5050509183525050600682015460208201526007820154604082015260088201546001600160a01b0381166060830152608090910190600160a01b900460ff1660028111156109b7576109b76114d6565b60028111156109c8576109c86114d6565b81526020016008820160159054906101000a900460ff1660018111156109f0576109f06114d6565b6001811115610a0157610a016114d6565b815260200160098201805480602002602001604051908101604052809291908181526020016000905b82821015610c3557838290600052602060002090600502016040518060a0016040529081600082018054610a5d90611aac565b80601f0160208091040260200160405190810160405280929190818152602001828054610a8990611aac565b8015610ad65780601f10610aab57610100808354040283529160200191610ad6565b820191906000526020600020905b815481529060010190602001808311610ab957829003601f168201915b50505050508152602001600182018054610aef90611aac565b80601f0160208091040260200160405190810160405280929190818152602001828054610b1b90611aac565b8015610b685780601f10610b3d57610100808354040283529160200191610b68565b820191906000526020600020905b815481529060010190602001808311610b4b57829003601f168201915b50505050508152602001600282018054610b8190611aac565b80601f0160208091040260200160405190810160405280929190818152602001828054610bad90611aac565b8015610bfa5780601f10610bcf57610100808354040283529160200191610bfa565b820191906000526020600020905b815481529060010190602001808311610bdd57829003601f168201915b505050918352505060038201546020808301919091526004909201546001600160a01b03166040909101529082526001929092019101610a2a565b505050915250909392505050565b600260205260009081526040902080548190610c5e90611aac565b80601f0160208091040260200160405190810160405280929190818152602001828054610c8a90611aac565b8015610cd75780601f10610cac57610100808354040283529160200191610cd7565b820191906000526020600020905b815481529060010190602001808311610cba57829003601f168201915b505050505090806001018054610cec90611aac565b80601f0160208091040260200160405190810160405280929190818152602001828054610d1890611aac565b8015610d655780601f10610d3a57610100808354040283529160200191610d65565b820191906000526020600020905b815481529060010190602001808311610d4857829003601f168201915b5050506002909301549192505060ff8116906001600160a01b036101009091041684565b610d9161127c565b610d9b60006112d6565b565b600160208190526000918252604090912080549181018054610dbe90611aac565b80601f0160208091040260200160405190810160405280929190818152602001828054610dea90611aac565b8015610e375780601f10610e0c57610100808354040283529160200191610e37565b820191906000526020600020905b815481529060010190602001808311610e1a57829003601f168201915b505050505090806002018054610e4c90611aac565b80601f0160208091040260200160405190810160405280929190818152602001828054610e7890611aac565b8015610ec55780601f10610e9a57610100808354040283529160200191610ec5565b820191906000526020600020905b815481529060010190602001808311610ea857829003601f168201915b505050505090806003018054610eda90611aac565b80601f0160208091040260200160405190810160405280929190818152602001828054610f0690611aac565b8015610f535780601f10610f2857610100808354040283529160200191610f53565b820191906000526020600020905b815481529060010190602001808311610f3657829003601f168201915b505050505090806004018054610f6890611aac565b80601f0160208091040260200160405190810160405280929190818152602001828054610f9490611aac565b8015610fe15780601f10610fb657610100808354040283529160200191610fe1565b820191906000526020600020905b815481529060010190602001808311610fc457829003601f168201915b505050505090806005018054610ff690611aac565b80601f016020809104026020016040519081016040528092919081815260200182805461102290611aac565b801561106f5780601f106110445761010080835404028352916020019161106f565b820191906000526020600020905b81548152906001019060200180831161105257829003601f168201915b50505060068401546007850154600890950154939490939092506001600160a01b038116915060ff600160a01b8204811691600160a81b9004168b565b6110b461127c565b600380549060006110c483611c29565b9091555050600354600081815260016020819052604090912091825581016110ec8982611b35565b50600281016110fb8882611b35565b506003810161110a8582611b35565b50600481016111198782611b35565b50600581016111288682611b35565b5060068101839055426007820155600881018054336001600160a01b03198216811783558492916001600160a81b03191660ff60a01b1990911617600160a01b83600281111561117a5761117a6114d6565b021790555060045460088201805460ff9092169160ff60a81b1916600160a81b8360018111156111ac576111ac6114d6565b02179055506003546004546040517f6665788984f53d5e0f25565425377e0bc1f6c529a7e3c497d78499f1ced9a8f1926111f19290918b9189918e9160ff1690611c50565b60405180910390a15050505050505050565b61120b61127c565b6001600160a01b0381166112705760405162461bcd60e51b815260206004820152602660248201527f4f776e61626c653a206e6577206f776e657220697320746865207a65726f206160448201526564647265737360d01b606482015260840161033b565b611279816112d6565b50565b6000546001600160a01b03163314610d9b5760405162461bcd60e51b815260206004820181905260248201527f4f776e61626c653a2063616c6c6572206973206e6f7420746865206f776e6572604482015260640161033b565b600080546001600160a01b038381166001600160a01b0319831681178455604051919092169283917f8be0079c531659141344cd1fd0a4f28419497f9722a3daafe3b4186f6b6457e09190a35050565b604051806101800160405280600081526020016060815260200160608152602001606081526020016060815260200160608152602001600081526020016000815260200160006001600160a01b031681526020016000600281111561138d5761138d6114d6565b815260200160008152602001606081525090565b634e487b7160e01b600052604160045260246000fd5b600082601f8301126113c857600080fd5b813567ffffffffffffffff808211156113e3576113e36113a1565b604051601f8301601f19908116603f0116810190828211818310171561140b5761140b6113a1565b8160405283815286602085880101111561142457600080fd5b836020870160208301376000602085830101528094505050505092915050565b6000806000806080858703121561145a57600080fd5b84359350602085013567ffffffffffffffff8082111561147957600080fd5b611485888389016113b7565b9450604087013591508082111561149b57600080fd5b6114a7888389016113b7565b935060608701359150808211156114bd57600080fd5b506114ca878288016113b7565b91505092959194509250565b634e487b7160e01b600052602160045260246000fd5b600281106114fc576114fc6114d6565b9052565b6020810161150e82846114ec565b92915050565b6000806040838503121561152757600080fd5b823567ffffffffffffffff8082111561153f57600080fd5b61154b868387016113b7565b9350602085013591508082111561156157600080fd5b5061156e858286016113b7565b9150509250929050565b60006020828403121561158a57600080fd5b5035919050565b6000815180845260005b818110156115b75760208185018101518683018201520161159b565b506000602082860101526020601f19601f83011685010191505092915050565b60006020808301818452808551808352604092508286019150828160051b87010184880160005b8381101561168757603f19898403018552815160a0815181865261162482870182611591565b915050888201518582038a87015261163c8282611591565b91505087820151858203898701526116548282611591565b606084810151908801526080938401516001600160a01b03169390960192909252505093860193908601906001016115fe565b509098975050505050505050565b600381106114fc576114fc6114d6565b600082825180855260208086019550808260051b84010181860160005b8481101561174e57601f19868403018952815160a081518186526116e882870182611591565b91505085820151858203878701526117008282611591565b9150506040808301518683038288015261171a8382611591565b606085810151908901526080948501516001600160a01b0316949097019390935250505097830197908301906001016116c2565b5090979650505050505050565b6020815281516020820152600060208301516101808060408501526117846101a0850183611591565b91506040850151601f19808685030160608701526117a28483611591565b935060608701519150808685030160808701526117bf8483611591565b935060808701519150808685030160a08701526117dc8483611591565b935060a08701519150808685030160c08701526117f98483611591565b935060c087015160e087015260e08701519150610100828188015280880151925050610120611832818801846001600160a01b03169052565b870151915061014061184687820184611695565b870151915061016061185a878201846114ec565b87015186850390910183870152905061187383826116a5565b9695505050505050565b60006020828403121561188f57600080fd5b81356001600160a01b03811681146118a657600080fd5b9392505050565b6080815260006118c06080830187611591565b82810360208401526118d28187611591565b941515604084015250506001600160a01b039190911660609091015292915050565b60006101608d835280602084015261190e8184018e611591565b90508281036040840152611922818d611591565b90508281036060840152611936818c611591565b9050828103608084015261194a818b611591565b905082810360a084015261195e818a611591565b60c0840189905260e084018890526001600160a01b038716610100850152915061198e9050610120830185611695565b61199c6101408301846114ec565b9c9b505050505050505050505050565b8035600381106119bb57600080fd5b919050565b600080600080600080600060e0888a0312156119db57600080fd5b873567ffffffffffffffff808211156119f357600080fd5b6119ff8b838c016113b7565b985060208a0135915080821115611a1557600080fd5b611a218b838c016113b7565b975060408a0135915080821115611a3757600080fd5b611a438b838c016113b7565b965060608a0135915080821115611a5957600080fd5b611a658b838c016113b7565b955060808a0135915080821115611a7b57600080fd5b50611a888a828b016113b7565b93505060a08801359150611a9e60c089016119ac565b905092959891949750929550565b600181811c90821680611ac057607f821691505b602082108103611ae057634e487b7160e01b600052602260045260246000fd5b50919050565b601f821115611b3057600081815260208120601f850160051c81016020861015611b0d5750805b601f850160051c820191505b81811015611b2c57828155600101611b19565b5050505b505050565b815167ffffffffffffffff811115611b4f57611b4f6113a1565b611b6381611b5d8454611aac565b84611ae6565b602080601f831160018114611b985760008415611b805750858301515b600019600386901b1c1916600185901b178555611b2c565b600085815260208120601f198616915b82811015611bc757888601518255948401946001909101908401611ba8565b5085821015611be55787850151600019600388901b60f8161c191681555b5050505050600190811b01905550565b828152604060208201526000611c0e6040830184611591565b949350505050565b6020815260006118a66020830184611591565b600060018201611c4957634e487b7160e01b600052601160045260246000fd5b5060010190565b85815260a060208201526000611c6960a0830187611591565b8281036040840152611c7b8187611591565b90508281036060840152611c8f8186611591565b91505061187360808301846114ec56fea2646970667358221220321adaec7d2c6177a32b8fc4cd4698c6209fef200f28002a9e7ab892126dc78a64736f6c63430008140033",
  "immutableReferences": {},
  "source": "// SPDX-License-Identifier: MIT\r\npragma solidity ^0.8.20;\r\n\r\nimport \"@openzeppelin/contracts/access/Ownable.sol\";\r\n\r\ncontract TruyXuatNguonGoc is Ownable {\r\n    \r\n    // Phân loại mạng lưới theo mô hình Cosmos (Vùng/Quốc gia)\r\n    enum NetworkRegion { Vietnam, Australia }\r\n    enum ProductType { Normal, OCOP, IntellectualProperty }\r\n\r\n    struct Manufacturer {\r\n        string name;\r\n        string taxCode;\r\n        bool isRegistered;\r\n        address wallet;\r\n    }\r\n\r\n    struct Step {\r\n        string description;  \r\n        string detail;       \r\n        string imageHash;    \r\n        uint256 timestamp;\r\n        address actor;\r\n    }\r\n\r\n    struct Product {\r\n        uint256 id;\r\n        string productCode;     \r\n        string name;            \r\n        string manufacturer;    \r\n        string certification;   \r\n        string rawMaterialArea; \r\n        uint256 productionDate; \r\n        uint256 activationDate; \r\n        address currentOwner;\r\n        ProductType pType;      \r\n        NetworkRegion region;   // Thuộc tính mới: Xác định vùng của Blockchain này\r\n        Step[] history;\r\n    }\r\n\r\n    mapping(uint256 => Product) public products;\r\n    mapping(address => Manufacturer) public manufacturers;\r\n    uint256 public productCount;\r\n    NetworkRegion public currentHubRegion; // Vùng cố định của Contract này\r\n\r\n    // Sự kiện Mint có thêm ProductCode để Backend Off-chain bắt được chính xác\r\n    event ProductMinted(uint256 id, string name, string manufacturer, string productCode, NetworkRegion region);\r\n    event ManufacturerRegistered(address indexed wallet, string name);\r\n    event StepRecorded(uint256 id, string description);\r\n\r\n    // Khởi tạo mạng lưới (Khi Deploy sẽ chọn đây là mạng VN hay AUS)\r\n    constructor(NetworkRegion _region) Ownable() {\r\n        currentHubRegion = _region;\r\n    }\r\n\r\n    function registerManufacturer(string memory _name, string memory _taxCode) public {\r\n        require(!manufacturers[msg.sender].isRegistered, \"Da dang ky!\");\r\n        manufacturers[msg.sender] = Manufacturer(_name, _taxCode, true, msg.sender);\r\n        emit ManufacturerRegistered(msg.sender, _name);\r\n    }\r\n\r\n    // Hàm Mint do ADMIN thực hiện (Sau khi duyệt Request từ Off-chain)\r\n    function mintFromOffchain(\r\n        string memory _code,\r\n        string memory _name,\r\n        string memory _cert,\r\n        string memory _area,\r\n        string memory _mName, // Tên doanh nghiệp lấy từ Request Database\r\n        uint256 _prodDate,\r\n        ProductType _pType\r\n    ) public onlyOwner {\r\n        productCount++;\r\n        Product storage p = products[productCount];\r\n        \r\n        p.id = productCount;\r\n        p.productCode = _code;\r\n        p.name = _name;\r\n        p.manufacturer = _mName; \r\n        p.certification = _cert;\r\n        p.rawMaterialArea = _area;\r\n        p.productionDate = _prodDate;\r\n        p.activationDate = block.timestamp;\r\n        p.currentOwner = msg.sender;\r\n        p.pType = _pType;\r\n        p.region = currentHubRegion; // Tự động gán vùng theo Hub\r\n\r\n        emit ProductMinted(productCount, _name, _mName, _code, currentHubRegion);\r\n    }\r\n\r\n    function addProductionLog(uint256 _id, string memory _desc, string memory _detail, string memory _img) public onlyOwner {\r\n        products[_id].history.push(Step({\r\n            description: _desc,\r\n            detail: _detail,\r\n            imageHash: _img,\r\n            timestamp: block.timestamp,\r\n            actor: msg.sender\r\n        }));\r\n        emit StepRecorded(_id, _desc);\r\n    }\r\n\r\n    function getProductDetails(uint256 _id) public view returns (Product memory) {\r\n        return products[_id];\r\n    }\r\n\r\n    function getProductHistory(uint256 _id) public view returns (Step[] memory) {\r\n        return products[_id].history;\r\n    }\r\n}",
  "sourcePath": "C:\\Users\\Admin\\OneDrive\\Desktop\\Solidity Demo 2\\contracts\\TruyXuatNguonGoc.sol",
  "compiler": {
    "name": "solc",
    "version": "0.8.20+commit.a1b79de6.Emscripten.clang"
  },
  "schemaVersion": "3.4.16",
  "updatedAt": "2026-04-15T06:08:09.756Z",
  "devdoc": {
    "kind": "dev",
    "methods": {
      "owner()": {
        "details": "Returns the address of the current owner."
      },
      "renounceOwnership()": {
        "details": "Leaves the contract without owner. It will not be possible to call `onlyOwner` functions. Can only be called by the current owner. NOTE: Renouncing ownership will leave the contract without an owner, thereby disabling any functionality that is only available to the owner."
      },
      "transferOwnership(address)": {
        "details": "Transfers ownership of the contract to a new account (`newOwner`). Can only be called by the current owner."
      }
    },
    "version": 1
  },
  "userdoc": {
    "kind": "user",
    "methods": {},
    "version": 1
  }
}